:100000000C9434000C943E000C943E000C943E0082
:100010000C943E000C943E000C943E000C943E0068
:100020000C943E000C943E000C9457000C943E003F
:100030000C943E000C943E000C943E000C943E0048
:100040000C943E000C943E000C943E000C943E0038
:100050000C943E000C943E000C943E000C943E0028
:100060000C943E000C943E0011241FBECFEFD8E04C
:10007000DEBFCDBF0E9440000C9477000C940000BE
:1000800080E284B982E085B9EFE6F0E080818062A9
:100090008083199B05C0E1E8F0E08081108205C0F3
:1000A000E1E8F0E08081806480837894FFCF1F9244
:1000B0000F920FB60F9211248F93EF93FF938091BD
:1000C0008100811107C02D9AE1E8F0E08081806411
:1000D000808305C02D98E1E8F0E080811082FF91D7
:1000E000EF918F910F900FBE0F901F901895F8947D
:0200F000FFCF40
:00000001FF
