S0170000455345353139204C4142322D322E312E73726563B2
S11300000C9434000C9446000C9446000C94460066
S11300100C9446000C9446000C9446000C94460044
S11300200C9446000C9446000C9446000C94460034
S11300300C9446000C9446000C9446000C94460024
S11300400C9446000C9446000C9446000C94460014
S11300500C9446000C9446000C9446000C94460004
S11300600C9446000C94460011241FBECFEFD8E038
S1130070DEBFCDBF21E0A0E0B1E001C01D92A03001
S1130080B207E1F70E9448000C9457000C9400005A
S1130090569A16BC84B5826084BD84B5806484BDE0
S11300A08EE887BD789485B5846085BDFFCFF894CC
S10500B0FFCF7C
S9030000FC
