:100000000C9434000C9446000C9446000C9446006A
:100010000C9446000C9446000C9446000C94460048
:100020000C9446000C9446000C9446000C94460038
:100030000C9446000C9446000C9446000C94460028
:100040000C9499000C9446000C9446000C944600C5
:100050000C9446000C9446000C9446000C94460008
:100060000C9446000C94460011241FBECFEFD8E03C
:10007000DEBFCDBF21E0A0E0B1E001C01D92A43001
:10008000B207E1F70E9448000C94C7020C940000EC
:1000900080E48AB983E884BD81E080936E0020E02B
:1000A00030E048EC52E460910001709101018091D0
:1000B0000201909103010E943F0120E030E04FE7F0
:1000C00053E40E9436020E94B10167BD789485E036
:1000D00085BD2FE788E391E0215080409040E1F713
:1000E00000C0000020E030E040E85FE360910001E4
:1000F0007091010180910201909103010E94D3004F
:1001000060930001709301018093020190930301B9
:1001100020E030E048EC52E40E9431021816CCF6A0
:10012000109200011092010110920201109203013D
:10013000D0CF1F920F920FB60F9211242F933F939F
:100140004F935F936F937F938F939F93AF93BF93DF
:10015000EF93FF9320E030E048EC52E4609100011F
:100160007091010180910201909103010E943F0171
:1001700020E030E04FE753E40E9436020E94B101D4
:1001800067BDFF91EF91BF91AF919F918F917F914B
:100190006F915F914F913F912F910F900FBE0F90F4
:1001A0001F9018955058BB27AA270E94EA000C946C
:1001B000F7010E94E90138F00E94F00120F039F4C3
:1001C0009F3F19F426F40C94E6010EF4E095E7FB4A
:1001D0000C94E001E92F0E94080258F3BA17620755
:1001E00073078407950720F079F4A6F50C942A028A
:1001F0000EF4E0950B2EBA2FA02D0B01B901900142
:100200000C01CA01A0011124FF27591B99F0593F85
:1002100050F4503E68F11A16F040A22F232F342FCD
:100220004427585FF3CF469537952795A795F0401B
:100230005395C9F77EF41F16BA0B620B730B840B30
:10024000BAF09150A1F0FF0FBB1F661F771F881FE8
:10025000C2F70EC0BA0F621F731F841F48F4879540
:1002600077956795B795F7959E3F08F0B0CF939532
:10027000880F08F09927EE0F9795879508950E94AB
:1002800053010C94F7010E94F00158F00E94E9011B
:1002900040F029F45F3F29F00C94E00151110C94D7
:1002A0002B020C94E6010E94080268F39923B1F333
:1002B000552391F3951B550BBB27AA27621773078C
:1002C000840738F09F5F5F4F220F331F441FAA1F20
:1002D000A9F335D00E2E3AF0E0E832D091505040DC
:1002E000E695001CCAF72BD0FE2F29D0660F771F8A
:1002F000881FBB1F261737074807AB07B0E809F070
:10030000BB0B802DBF01FF2793585F4F3AF09E3FF4
:10031000510578F00C94E0010C942B025F3FE4F35C
:10032000983ED4F3869577956795B795F7959F5F37
:10033000C9F7880F911D9695879597F90895E1E083
:10034000660F771F881FBB1F621773078407BA07E2
:1003500020F0621B730B840BBA0BEE1F88F7E0953D
:1003600008950E94100288F09F5798F0B92F99279E
:10037000B751B0F0E1F0660F771F881F991F1AF090
:10038000BA95C9F714C0B13091F00E942A02B1E0C9
:1003900008950C942A02672F782F8827B85F39F0C8
:1003A000B93FCCF3869577956795B395D9F73EF429
:1003B00090958095709561957F4F8F4F9F4F0895D1
:1003C00097F99F6780E870E060E008959FEF80EC08
:1003D000089500240A9416161706180609060895AB
:1003E00000240A9412161306140605060895092E11
:1003F0000394000C11F4882352F0BB0F40F4BF2B80
:1004000011F460FF04C06F5F7F4F8F4F9F4F0895BF
:1004100057FD9058440F551F59F05F3F71F04795B5
:10042000880F97FB991F61F09F3F79F0879508959A
:10043000121613061406551FF2CF4695F1DF08C0B9
:10044000161617061806991FF1CF869571056105D6
:1004500008940895E894BB2766277727CB0197F97E
:1004600008950E94A30208F48FEF08950E944902A4
:100470000C94F7010E94E90138F00E94F00120F08D
:10048000952311F00C94E0010C94E60111240C94D6
:100490002B020E94080270F3959FC1F3950F50E064
:1004A000551F629FF001729FBB27F00DB11D639F26
:1004B000AA27F00DB11DAA1F649F6627B00DA11DCC
:1004C000661F829F2227B00DA11D621F739FB00D72
:1004D000A11D621F839FA00D611D221F749F3327E2
:1004E000A00D611D231F849F600D211D822F762F7B
:1004F0006A2F11249F5750409AF0F1F088234AF058
:10050000EE0FFF1FBB1F661F771F881F91505040C3
:10051000A9F79E3F510580F00C94E0010C942B024A
:100520005F3FE4F3983ED4F3869577956795B7954A
:10053000F795E7959F5FC1F7FE2B880F911D969564
:10054000879597F90895990F0008550FAA0BE0E8D1
:10055000FEEF16161706E807F907C0F01216130685
:10056000E407F50798F0621B730B840B950B39F4C5
:100570000A2661F0232B242B252B21F408950A262B
:1005800009F4A140A6958FEF811D811D0895F8946F
:02059000FFCF9B
:00000001FF
