S0180000455345353139204C4142322D332E334E2E7372656360
S11300000C9434000C9451000C9451000C94510045
S11300100C9451000C948D020C9451000C945100DA
S11300200C9451000C9451000C940E020C94F501A4
S11300300C9451000C945E020C947B020C945100BD
S11300400C9451000C9451000C9451000C945100E8
S11300500C9451000C9451000C9451000C945100D8
S11300600C9451000C94510011241FBECFEFD8E022
S1130070DEBFCDBF11E0A0E0B1E0E2E0F0E102C0FC
S113008005900D92A430B107D9F721E0A4E0B1E0C6
S113009001C01D92AF31B207E1F70E9463000C94D6
S11300A0FF070C940000ECE7F0E08081806480831B
S11300B0EAE7F0E087E88083808180628083808142
S11300C080648083089592E09093C0001092C500EC
S11300D08FEC8093C40088E18093C10084B18E6169
S11300E084B9569A299AE8E6F0E080818460808396
S11300F0EDE6F0E080818068808394BDEEE6F0E078
S113010080818260808385B5836085BD8091840011
S1130110909185000A969093890080938800EFE679
S1130120F0E0808182608083A1E8B0E08C918260FD
S11301308C938C9180648C9380818160808378948B
S11301400E9453002FEF80E792E0215080409040BE
S1130150E1F700C000000F2EF8E74F2E512CF02DD0
S11301600F2EF0E0CF2EF1E0DF2EF02D0F2EF3E175
S1130170EF2EF1E0FF2EF02D06EC10E0C0ECD0E005
S11301800F2EFCE37F2EF02D6894882486F80F2E22
S1130190F7E49F2EF02D0F2EF0E5AF2EF02D0F2E4D
S11301A0FAE5BF2EF02DF201808191819093120126
S11301B080931101809108018F93809107018F939F
S11301C0DF92CF92FF92EF920E9415059093100157
S11301D080930F0120910D0130910E010F900F902B
S11301E00F900F900F900F902817390704F5F9011D
S11301F0ED5EFE4F8081F801808380910D01909126
S11302000E01019690930E0180930D01888186FF63
S1130210FDCF88818064888320910D0130910E0187
S113022080910F01909110012817390704F310925F
S11302300E0110920D0180911101909112018935E6
S1130240924018F02A982B982C9880911101909143
S1130250120187529240C29718F42A9A2B982C982C
S11302608091110190911201855F9140C29718F419
S11302702A982B9A2C988091110190911201835CF9
S11302809140C29718F42A982B982C9A80911101C6
S11302909091120181599140C29718F42A9A2B9A8D
S11302A02C9880911101909112018F559140C29721
S11302B018F42A9A2B982C9A80911101909112018A
S11302C08D529140C29718F42A982B9A2C9A8091B7
S11302D01101909112018B5F9109C29718F42A9A27
S11302E02B9A2C9A80910401882371F16091070163
S11302F07091080180E090E00E94C20320E030E0A9
S113030040E451EC0E94A80420E030E048E454E4C6
S11303100E94210320E030E04FE653E40E94B5023E
S113032020E030E040E05FE30E94A8040E94FF0365
S113033060931B0170931C0180931D0190931E0117
S11303400E94930367BD2FCF80910701909108010C
S1130350893E934010F488E787BD8091070190910E
S11303600801895E9340883E934010F48BE687BD74
S11303708091070190910801815D9740883E9340E8
S113038010F48FE587BD8091070190910801895B86
S11303909B40883E934008F4B7BC8091070190913C
S11303A00801815A9F40883E934008F4A7BC80917D
S11303B007019091080189589341883E934008F4BD
S11303C097BC809107019091080181579741883E1D
S11303D0934008F487BC8091070190910801893506
S11303E09B4108F4E0CE77BCDECE1F920F920FB68D
S11303F00F9211248F93EF93FF932998EFE6F0E087
S113040080818D7F8083808180628083FF91EF91E2
S11304108F910F900FBE0F901F9018951F920F92FF
S11304200FB60F9211242F933F938F939F93EF93C3
S1130430FF938091810086FF0EC080918600909189
S1130440870090930C0180930B01E1E8F0E0808138
S11304508F7B808328C08091860090918700909341
S11304600A0180930901E1E8F0E0808180648083DF
S1130470EFE6F0E080818F7D8083808182608083DD
S11304808091090190910A0120910B0130910C0196
S1130490821B930B909308018093070110928500AF
S11304A010928400299AFF91EF919F918F913F912F
S11304B02F910F900FBE0F901F9018951F920F92BF
S11304C00FB60F9211248F93EF93FF93EFE6F0E0B2
S11304D080818F7D8083808182608083299A1092BD
S11304E0850010928400FF91EF918F910F900FBEC1
S11304F00F901F9018951F920F920FB60F92112410
S11305008F939F939BB180E489278BB99F918F919F
S11305100F900FBE0F901F9018951F920F920FB659
S11305200F9211248F939F9380910501909106015E
S1130530019751F49091040181E08927809304018B
S11305401092060110920501809105019091060117
S1130550019690930601809305019F918F910F90CE
S11305600FBE0F901F9018955058BB27AA270E94C2
S1130570CC020C9456040E94480438F00E944F04A4
S113058020F039F49F3F19F426F40C9445040EF43A
S1130590E095E7FB0C941604E92F0E94670458F3D6
S11305A0BA17620773078407950720F079F4A6F554
S11305B00C94A1040EF4E0950B2EBA2FA02D0B0180
S11305C0B90190010C01CA01A0011124FF27591B94
S11305D099F0593F50F4503E68F11A16F040A22F9A
S11305E0232F342F4427585FF3CF4695379527950B
S11305F0A795F0405395C9F77EF41F16BA0B620B0A
S1130600730B840BBAF09150A1F0FF0FBB1F661F50
S1130610771F881FC2F70EC0BA0F621F731F841F93
S113062048F4879577956795B795F7959E3F08F0B9
S1130630B0CF9395880F08F09927EE0F979587957B
S113064008950E9435030C9456040E944F0458F0F8
S11306500E94480440F029F45F3F29F00C941604EA
S113066051110C94A2040C9445040E94670468F38D
S11306709923B1F3552391F3951B550BBB27AA2757
S113068062177307840738F09F5F5F4F220F331F91
S1130690441FAA1FA9F335D00E2E3AF0E0E832D059
S11306A091505040E695001CCAF72BD0FE2F29D05C
S11306B0660F771F881FBB1F261737074807AB072E
S11306C0B0E809F0BB0B802DBF01FF2793585F4FA3
S11306D03AF09E3F510578F00C9416040C94A20451
S11306E05F3FE4F3983ED4F3869577956795B79585
S11306F0F7959F5FC9F7880F911D9695879597F990
S11307000895E1E0660F771F881FBB1F6217730708
S11307108407BA0720F0621B730B840BBA0BEE1F1D
S113072088F7E09508950E946F0488F09F5798F029
S1130730B92F9927B751B0F0E1F0660F771F881FE2
S1130740991F1AF0BA95C9F714C0B13091F00E94FC
S1130750A104B1E008950C94A104672F782F882791
S1130760B85F39F0B93FCCF3869577956795B39523
S1130770D9F73EF490958095709561957F4F8F4F92
S11307809F4F0895E89409C097FB3EF49095809597
S1130790709561957F4F8F4F9F4F9923A9F0F92F43
S11307A096E9BB279395F695879577956795B795C1
S11307B0F111F8CFFAF4BB0F11F460FF1BC06F5FA7
S11307C07F4F8F4F9F4F16C0882311F096E911C0B9
S11307D0772321F09EE8872F762F05C0662371F0DA
S11307E096E8862F70E060E02AF09A95660F771FEE
S11307F0881FDAF7880F9695879597F908950E94D0
S1130800890490F09F3748F4911116F00C94A204D7
S113081060E070E080E89FEB089526F41B16611DEC
S1130820711D811D0C941C040C94370497F99F6767
S113083080E870E060E00895882371F4772321F064
S11308409850872B762F07C0662311F499270DC083
S11308509051862B70E060E02AF09A95660F771F1E
S1130860881FDAF7880F9695879597F908959F3F23
S113087031F0915020F4879577956795B795880F57
S1130880911D9695879597F908959FEF80EC0895AB
S113089000240A941616170618060906089500245B
S11308A00A9412161306140605060895092E0394D5
S11308B0000C11F4882352F0BB0F40F4BF2B11F449
S11308C060FF04C06F5F7F4F8F4F9F4F089557FDA8
S11308D09058440F551F59F05F3F71F04795880FAA
S11308E097FB991F61F09F3F79F087950895121641
S11308F013061406551FF2CF4695F1DF08C01616ED
S113090017061806991FF1CF86957105610508949D
S113091008950E946F04A0F0BEE7B91788F4BB27BE
S11309209F3860F41616B11D672F782F8827985FBB
S1130930F7CF869577956795B11D93959639C8F34A
S11309400895E894BB2766277727CB0197F9089584
S11309500E94BB040C9456040E94480438F00E9480
S11309604F0420F0952311F00C9416040C944504C4
S113097011240C94A2040E94670470F3959FC1F3A0
S1130980950F50E0551F629FF001729FBB27F00D39
S1130990B11D639FAA27F00DB11DAA1F649F66278E
S11309A0B00DA11D661F829F2227B00DA11D621FDD
S11309B0739FB00DA11D621F839FA00D611D221F97
S11309C0749F3327A00D611D231F849F600D211D7B
S11309D0822F762F6A2F11249F5750409AF0F1F0FE
S11309E088234AF0EE0FFF1FBB1F661F771F881F67
S11309F091505040A9F79E3F510580F00C94160485
S1130A000C94A2045F3FE4F3983ED4F38695779563
S1130A106795B795F795E7959F5FC1F7FE2B880F0C
S1130A20911D9695879597F90895AEE0B0E0EBE1B6
S1130A30F5E00C94D6070D891E8986E08C831A8311
S1130A4009838FEF9FE79E838D83AE01475E5F4FDF
S1130A506F89788DCE0101960E943705EF81F88564
S1130A60E00FF11F10822E96E4E00C94F207ABE045
S1130A70B0E0EDE3F5E00C94C8076C017B018A015A
S1130A80FC0117821682838181FFCCC1CE010196BD
S1130A903C01F6019381F70193FD859193FF8191C8
S1130AA07F01882309F4BAC1853239F493FD859115
S1130AB093FF81917F01853229F4B60190E00E9471
S1130AC02E07E7CF912C212C312CFFE1F315D8F020
S1130AD08B3279F038F4803279F08332A1F4232D0B
S1130AE020611DC08D3261F0803369F4232D2160B3
S1130AF016C0832D8260382EE32DE4603E2E2AC07A
S1130B00F32DF8601DC037FC2DC020ED280F2A30CE
S1130B1040F08E32B9F436FC81C1232D2064322E8C
S1130B2019C036FE06C08AE0989E200D1124922E2C
S1130B3011C0EAE02E9E200D1124222EF32DF06226
S1130B403F2E08C08C3621F4832D8068382E02C0D5
S1130B50883641F4F70193FD859193FF81917F01DC
S1130B608111B3CF982F9F7D9554933028F40C5F57
S1130B701F4F9FE399830DC0833631F0833771F0A3
S1130B80833509F059C021C0F801808189830E5F43
S1130B901F4F88248394912C530113C02801F2E041
S1130BA04F0E511CF801A080B18036FE03C0692DA0
S1130BB070E002C06FEF7FEFC5010E9423074C0174
S1130BC08201F32DFF773F2E16C0280122E0420E4A
S1130BD0511CF801A080B18036FE03C0692D70E07D
S1130BE002C06FEF7FEFC5010E9418074C01F32D7F
S1130BF0F0683F2E820133FC1BC0822D90E08816E2
S1130C009906B0F4B60180E290E00E942E072A947F
S1130C10F4CFF50137FC859137FE81915F01B60170
S1130C2090E00E942E0721102A9421E0821A910854
S1130C308114910471F7E8C0843611F0893641F5C6
S1130C40F80137FE07C060817181828193810C5F56
S1130C501F4F08C060817181072E000C880B990B0F
S1130C600E5F1F4FF32DFF763F2E97FF09C090951F
S1130C708095709561957F4F8F4F9F4FF0683F2E01
S1130C802AE030E0A3010E946A07882E861845C036
S1130C90853731F4232D2F7EB22E2AE030E025C093
S1130CA0932D997FB92E8F36C1F018F4883579F0D9
S1130CB0B5C0803719F0883721F0B0C0E92FE06162
S1130CC0BE2EB4FE0DC0FB2DF460BF2E09C034FE51
S1130CD00AC0292F2660B22E06C028E030E005C0E5
S1130CE020E130E002C020E132E0F801B7FE07C0A5
S1130CF060817181828193810C5F1F4F06C0608186
S1130D00718180E090E00E5F1F4FA3010E946A078B
S1130D10882E8618FB2DFF773F2E36FE0DC0232D1F
S1130D202E7FA22E891458F434FE0BC032FC09C065
S1130D30832D8E7EA82E05C0B82CA32C03C0B82CFE
S1130D4001C0B92CA4FE0FC0FE01E80DF11D808185
S1130D50803321F49A2D997EA92E09C0A2FE06C0E3
S1130D60B394B39404C08A2D867809F0B394A3FC99
S1130D7011C0A0FE06C0B21488F4280C922C9B1853
S1130D800EC0B21460F4B60180E290E00E942E0717
S1130D90B394F7CFB21418F42B1802C0982C212C5A
S1130DA0A4FE10C0B60180E390E00E942E07A2FECC
S1130DB017C0A1FC03C088E790E002C088E590E07A
S1130DC0B6010CC08A2D867859F0A1FE02C08BE2D0
S1130DD001C080E2A7FC8DE2B60190E00E942E07DC
S1130DE0891438F4B60180E390E00E942E079A94A7
S1130DF0F7CF8A94F301E80DF11D8081B60190E0EC
S1130E000E942E078110F5CF222009F442CEB601AC
S1130E1080E290E00E942E072A94F6CFF6018681A4
S1130E20978102C08FEF9FEF2B96E2E10C94E407C9
S1130E30FC010590615070400110D8F780959095A1
S1130E408E0F9F1F0895FC016150704001900110A6
S1130E50D8F7809590958E0F9F1F08950F931F9339
S1130E60CF93DF93FB01238121FD03C08FEF9FEF1D
S1130E702CC022FF16C04681578124813581421738
S1130E80530744F4A081B1819D012F5F3F4F31830B
S1130E9020838C93268137812F5F3F4F37832683AE
S1130EA014C08B01EC01FB010084F185E02D099550
S1130EB0892BE1F6D80116968D919C91179701968E
S1130EC017969C938E931697CE01DF91CF911F9125
S1130ED00F910895FA01AA27283051F1203181F1A8
S1130EE0E8946F936E7F6E5F7F4F8F4F9F4FAF4F2E
S1130EF0B1E03ED0B4E03CD0670F781F891F9A1F41
S1130F00A11D680F791F8A1F911DA11D6A0F711DF4
S1130F10811D911DA11D20D009F468943F912AE000
S1130F20269F11243019305D3193DEF6CF010895E8
S1130F30462F4770405D4193B3E00FD0C9F7F6CF19
S1130F40462F4F70405D4A3318F0495D31FD4052E1
S1130F50419302D0A9F7EACFB4E0A6959795879577
S1130F6077956795BA95C9F7009761057105089556
S1130F709B01AC010A2E0694579547953795279502
S1130F80BA95C9F7620F731F841F951FA01D08959A
S1130F902F923F924F925F926F927F928F929F9285
S1130FA0AF92BF92CF92DF92EF92FF920F931F9373
S1130FB0CF93DF93CDB7DEB7CA1BDB0B0FB6F89424
S1130FC0DEBF0FBECDBF09942A88398848885F8464
S1130FD06E847D848C849B84AA84B984C884DF80D5
S1130FE0EE80FD800C811B81AA81B981CE0FD11DB9
S1130FF00FB6F894DEBF0FBECDBFED010895F8948F
S1051000FFCF1C
S107100225640A0053
S9030000FC
