:100000000C9434000C9451000C9451000C94510049
:100010000C9451000C9451000C9451000C9451001C
:100020000C9451000C9451000C9495010C945100C7
:100030000C9451000C9451000C9483010C945100C9
:100040000C9451000C9451000C9451000C945100EC
:100050000C9451000C9451000C9451000C945100DC
:100060000C9451000C94510011241FBECFEFD8E026
:10007000DEBFCDBF11E0A0E0B1E0ECEAF7E002C0E6
:1000800005900D92A430B107D9F721E0A4E0B1E0CA
:1000900001C01D92AB30B207E1F70E9496000C94AC
:1000A000D4030C940000CF93DF93FC012081222322
:1000B00069F0DC011196E0ECF0E0C6ECD0E0908154
:1000C00095FFFDCF28832D912111F9CFDF91CF919D
:1000D0000895CF93DF93CDB7DEB760970FB6F8944E
:1000E000DEBF0FBECDBF4AE0BE016F5F7F4F0E94F3
:1000F0009F03CE0101960E94530060960FB6F894BC
:10010000DEBF0FBECDBFDF91CF910895ECE7F0E0E9
:10011000808180648083EAE7F0E087E880838081E3
:10012000806280838081806480830895219A92E038
:1001300094BDEEE6F0E0808182608083789485B59E
:10014000836085BDEFE6F0E0808180628083E1E836
:10015000F0E08081806480839093C0001092C5009D
:100160008FEC8093C40088E18093C1000E948600D8
:100170002FEF80E792E0215080409040E1F700C0EF
:100180000000C8E7D0E00F2EFCE3AF2EF02D6894FE
:10019000BB24B6F80F2EF7E4CF2EF02D0F2EF0E58E
:1001A000DF2EF02D0F2EFAE5EF2EF02D0F2EFFE5AE
:1001B000FF2EF02D0BE618E780910401882309F447
:1001C0004AC068817981709306016093050180E0DF
:1001D00090E00E944C0220E030E040EF52EC0E94A0
:1001E000320320E030E040E85AE30E94320320E08E
:1001F00030E04FE653E40E94AA0120E030E040E006
:100200005FE30E9432030E948902609307017093AA
:1002100008018093090190930A010E941602CB0104
:100220000E94690080E091E00E9453006091070104
:10023000709108018091090190910A010E941D02AC
:1002400067BD2FEF80E792E0215080409040E1F7BA
:1002500000C00000B1CF88819981909306018093FE
:1002600005018138910508F417BD80910501909131
:100270000601815891098038910508F407BD8091E5
:10028000050190910601815091408038910508F454
:10029000F7BC80910501909106018158914080380A
:1002A000910508F4E7BC8091050190910601815009
:1002B00092408038910508F4D7BC80910501909157
:1002C0000601815892408038910508F4C7BC80919E
:1002D000050190910601815093408038910508F402
:1002E000B7BC80910501909106018138934008F0D8
:1002F000A7BC8FEF90E722E0815090402040E1F7CB
:1003000000C0000059CF1F920F920FB60F92112418
:100310008F939F9395B182E0892785B99F918F91A3
:100320000F900FBE0F901F9018951F920F920FB64F
:100330000F9211248F939F939091040181E089275C
:10034000809304019F918F910F900FBE0F901F908B
:1003500018955058BB27AA270E94C1010C94E002AF
:100360000E94D20238F00E94D90220F039F49F3F57
:1003700019F426F40C94CF020EF4E095E7FB0C94EC
:10038000A002E92F0E94F10258F3BA17620773071F
:100390008407950720F079F4A6F50C942B030EF44E
:1003A000E0950B2EBA2FA02D0B01B90190010C0185
:1003B000CA01A0011124FF27591B99F0593F50F49D
:1003C000503E68F11A16F040A22F232F342F4427F5
:1003D000585FF3CF469537952795A795F0405395ED
:1003E000C9F77EF41F16BA0B620B730B840BBAF0BD
:1003F0009150A1F0FF0FBB1F661F771F881FC2F728
:100400000EC0BA0F621F731F841F48F4879577953B
:100410006795B795F7959E3F08F0B0CF9395880FF5
:1004200008F09927EE0F9795879508950E941D0271
:100430006894B1110C942C0308950E94F90288F07D
:100440009F5798F0B92F9927B751B0F0E1F0660F98
:10045000771F881F991F1AF0BA95C9F714C0B130D9
:1004600091F00E942B03B1E008950C942B03672FA9
:10047000782F8827B85F39F0B93FCCF38695779508
:100480006795B395D9F73EF49095809570956195F1
:100490007F4F8F4F9F4F0895E89409C097FB3EF41C
:1004A00090958095709561957F4F8F4F9F4F9923C1
:1004B000A9F0F92F96E9BB279395F695879577953F
:1004C0006795B795F111F8CFFAF4BB0F11F460FFFF
:1004D0001BC06F5F7F4F8F4F9F4F16C0882311F057
:1004E00096E911C0772321F09EE8872F762F05C06B
:1004F000662371F096E8862F70E060E02AF09A9506
:10050000660F771F881FDAF7880F9695879597F9FA
:1005100008950E94130390F09F3748F4911116F04C
:100520000C942C0360E070E080E89FEB089526F4C3
:100530001B16611D711D811D0C94A6020C94C10235
:1005400097F99F6780E870E060E00895882371F470
:10055000772321F09850872B762F07C0662311F45C
:1005600099270DC09051862B70E060E02AF09A9593
:10057000660F771F881FDAF7880F9695879597F98A
:1005800008959F3F31F0915020F4879577956795B6
:10059000B795880F911D9695879597F908959FEFC8
:1005A00080EC089500240A9416161706180609060A
:1005B000089500240A9412161306140605060895D9
:1005C000092E0394000C11F4882352F0BB0F40F461
:1005D000BF2B11F460FF04C06F5F7F4F8F4F9F4FA1
:1005E000089557FD9058440F551F59F05F3F71F023
:1005F0004795880F97FB991F61F09F3F79F087958A
:100600000895121613061406551FF2CF4695F1DF12
:1006100008C0161617061806991FF1CF86957105A2
:100620006105089408950E94F902A0F0BEE7B91789
:1006300088F4BB279F3860F41616B11D672F782FFA
:100640008827985FF7CF869577956795B11D939525
:100650009639C8F30895E894BB2766277727CB011E
:1006600097F908950E9445030C94E0020E94D2027B
:1006700038F00E94D90220F0952311F00C94A002CA
:100680000C94CF0211240C942C030E94F10270F3FD
:10069000959FC1F3950F50E0551F629FF001729F27
:1006A000BB27F00DB11D639FAA27F00DB11DAA1F36
:1006B000649F6627B00DA11D661F829F2227B00D83
:1006C000A11D621F739FB00DA11D621F839FA00D0E
:1006D000611D221F749F3327A00D611D231F849F5E
:1006E000600D211D822F762F6A2F11249F575040B5
:1006F0009AF0F1F088234AF0EE0FFF1FBB1F661F30
:10070000771F881F91505040A9F79E3F510580F0F8
:100710000C94A0020C942C035F3FE4F3983ED4F3B6
:10072000869577956795B795F795E7959F5FC1F79C
:10073000FE2B880F911D9695879597F90895BB27F5
:100740004A3031F4992322F4BDE2909581959F4F70
:100750000C94AB03BB27FB015527AA27880F991FD1
:10076000AA1FA41710F0A41B83955051B9F7A05DE0
:10077000AA3308F0A95DA193009779F7B111B1935D
:100780001192CB010C94C403DC01FC01672F719121
:100790007723E1F7329704C07C916D937083629167
:0C07A000AE17BF07C8F30895F894FFCF10
:0407AC00200D0A0012
:00000001FF
