S0100000506F6E6747616D652E7372656306
S11300000C94B2020C94CF020C94CF020C94CF0245
S11300100C94CF020C94CF020C94CF020C94CF0218
S11300200C94CF020C94CF020C94CF020C94BF1307
S11300300C94CF020C94CF020C94CF020C94CF02F8
S11300400C94CF020C94CF020C94CF020C94CF02E8
S11300500C94CF020C94CF020C94CF020C94CF02D8
S11300600C94CF020C94CF0200000000007CDAF262
S1130070DA7C7CD6F2D67C387C3E7C38183C7E3CDC
S11300801838EABEEA38387AFE7A3800183C180084
S1130090FFE7C3E7FF0018241800FFE7DBE7FF0CC6
S11300A0125C607064949E946402FEA0A0E002FE60
S11300B0A0A4FC5A3CE73C5AFE7C3838101038386F
S11300C07CFE2844FE4428FAFA00FAFA6090FE8086
S11300D0FE006691A95606060606062945FF45292F
S11300E010207E201008047E0408101054381010CC
S11300F038541010780808080830783078300C1C10
S11301007C1C0C60707C706000000000000000FA31
S1130110000000E000E00028FE28FE282454FE54DD
S113012048C4C81026466C926A040A0010E0C00055
S1130130003844820000824438005438FE38541099
S1130140107C101000010E0C001010101010000094
S113015006060004081020407C8A92A27C0042FE1D
S113016002004E92929262848292B2CC182848FE87
S113017008E4A2A2A29C3C5292928C82848890E0D1
S11301806C9292926C629292947800002800000023
S1130190022C0000001028448228282828280082E5
S11301A044281040809A90607C82BA9A723E4888B3
S11301B0483EFE9292926C7C82828244FE828282CB
S11301C07CFE92929282FE909090807C82828ACE73
S11301D0FE101010FE0082FE8200040282FC80FEEB
S11301E010284482FE02020202FE403840FEFE2035
S11301F01008FE7C8282827CFE909090607C828AD1
S1130200847AFE90989462649292924CC080FE80AC
S1130210C0FC020202FCF8040204F8FC021C02FC0A
S1130220C6281028C6C0201E20C0869A92B2C200DA
S1130230FE828282402010080400828282FE2040D6
S1130240804020020202020200C0E01000042A2AB8
S11302501E02FE1422221C1C222222141C222214FE
S1130260FE1C2A2A2A1800107E9040182525391EC3
S1130270FE1020201E0022BE0200040202BC00FE6A
S1130280081422000082FE02003E201E201E3E10A2
S113029020201E1C2222221C3F1824241818242447
S11302A0183F3E10202010122A2A2A242020FC2243
S11302B0243C0202043E38040204383C020C023C92
S11302C02214081422320909093E22262A32220065
S11302D0106C82000000EE000000826C1000408070
S11302E04020403C64C4643C78858586485C0202B6
S11302F0045E1C2A2AAA9A84AAAA9E82842A2A1EF6
S11303008284AA2A1E02042AAA9E0230784A4E48EF
S11303109CAAAAAA9A9C2A2A2A9A9CAA2A2A1A003D
S113032000A23E820040A2BE420080A23E020F9480
S113033024940F0F14A4140F3E2AAAA200042A2AFC
S11303403E2A3E5090FE924C9292924C4C121212C3
S11303504C4C5212120C5C8282845E5C4202041E7B
S113036000B90505BE9C2222229CBC020202BC3CB0
S113037024FF2424127E92C266D4F43FF4D4FF9066
S1130380946F0403117E90C0042A2A9E82000022E6
S1130390BE820C1212524C1C0202445E005E50508B
S11303A04EBEB0988CBE649494F414649494946493
S11303B00C12B202041C10101010101010101CF4B7
S11303C00813355DF408142C5F0000DE00001028CB
S11303D054284444285428105500AA005555AA55B9
S11303E0AA55AA55AA55AA000000FF00080808FF4C
S11303F000282828FF000808FF00FF08080F080F3E
S11304002828283F002828EF00FF0000FF00FF28CD
S1130410282F203F2828E808F80808F808F8282892
S113042028F8000808080F00000000F80808080869
S1130430F8080808080F08000000FF080808080862
S113044008080808FF08000000FF280000FF00FF5C
S11304500000F808E800003F202F2828E808E828D2
S1130460282F202F0000FF00EF28282828282828DC
S1130470EF00EF282828E8280808F808F828282892
S11304802F2808080F080F0000F808F8000000F8EB
S1130490280000003F2800000F080F0808FF08FF8D
S11304A0282828FF28080808F8000000000F08FF83
S11304B0FFFFFFFF0F0F0F0F0FFFFFFF00000000F4
S11304C000FFFFF0F0F0F0F01C22221C223E5454F6
S11304D07C287E40406060407E407E40C6AA928276
S11304E0C61C22223C20027E04780460407E4040E8
S11304F099A5E7A5993854925438324E804E320C5F
S113050052B2B20C0C121E120C3D465A62BC7C92C2
S11305109292007E8080807E54545454542222FA55
S11305202222028A5222020222528A020000FF8000
S1130530C00701FF00001010D6D6106C486C246C64
S113054060F090F060000018180000000808000C2B
S113055002FF808000F88080780098B8E848003C6A
S11305603C3C3C0011241FBECFEFD8E0DEBFCDBF22
S113057015E0A0E0B1E0EAE5FEE202C005900D92CC
S1130580A437B107D9F726E0A4E7B5E001C01D926E
S1130590A739B207E1F70E94E40E0C942B170C94D0
S11305A00000CF93DF93FC012081222369F0DC015A
S11305B01196E0ECF0E0C6ECD0E0908195FFFDCF21
S11305C028832D912111F9CFDF91CF910895CF93F5
S11305D0DF93CDB7DEB760970FB6F894DEBF0FBEDA
S11305E0CDBF4AE0BE016F5F7F4F0E94A216CE01CD
S11305F001960E94D10260960FB6F894DEBF0FBE3A
S1130600CDBFDF91CF91089582E08093C000109216
S1130610C5008FEC8093C40088E18093C100ECE7AF
S1130620F0E0808180648083EAE7F0E087E88083FB
S11306308081806280838081806480832FEF83EC5B
S113064099E0215080409040E1F700C000000895F7
S1130650ECE7F0E09081987F8770892B808380910C
S113066078009091790008955C9827E030E090E05C
S11306705D98AC01022E02C0559547950A94E2F7A5
S113068040FF02C05E9A01C05E985D9A2150310914
S113069078F70895569A559A549A539A529A5A98B2
S11306A05B982FEF89E698E1215080409040E1F774
S11306B000C000005B9A83EA0E94340380EA0E942F
S11306C0340380EC0E94340380E40E9434038CE2FF
S11306D00E9434032FEF80E792E021508040904045
S11306E0E1F700C000008EE20E9434032FEF80E7A0
S11306F092E0215080409040E1F700C000008FE27A
S11307000E9434038FE39CE90197F1F700C00000D5
S113071086E20E94340308955C9A27E030E090E07A
S11307205D98AC01022E02C0559547950A94E2F7F4
S113073040FF02C05E9A01C05E985D9A2150310963
S113074078F70895CF93C82F81E80E9434038C2F43
S11307508F730E943403CF910895CF92DF92EF926A
S1130760FF920F931F93CF93DF930F2EF4E0EF2E9E
S1130770F5E0FF2EF02DEC010F2EF4E1CF2EF5E085
S1130780DF2EF02DF7018081F2E0EF0EF11C806B7B
S11307900E94340380E00E94340380E10E94340309
S11307A080EE0E9434038FEF0E948C038E01005868
S11307B01F4F89910E948C03C017D107D1F7E8011C
S11307C0CE14DF04F9F6DF91CF911F910F91FF90C2
S11307D0EF90DF90CF90089520E034E0FC01A90170
S11307E0119241505040E1F70895242F2695269503
S11307F02695E62FF0E030E8239FE00DF11D11244B
S1130800E80FF91F50E0409550954770552781E057
S113081090E002C0880F991F4A95E2F79081892BD6
S113082080830895242F269526952695E62FF0E0BB
S113083030E8239FE00DF11D1124E80FF91F50E06B
S1130840409550954770552781E090E002C0880F8D
S1130850991F4A95E2F780959081892380830895B2
S1130860DF92EF92FF920F931F93CF93DF938C014C
S1130870D62EE9018881882371F180E8489F7001B0
S1130880112425C0D701A40FB11DA00FB11F888169
S113089090E0FC01EE0FFF1FEE0FFF1FE80FF91FA2
S11308A0E20FF31FE859FF4FE4918C91E82BEC938E
S11308B04F5F2F5F3F4F2530310521F785E0D80E7C
S11308C0C8010E94AD0321968881882321F04D2D13
S11308D020E030E0D7CFDF91CF911F910F91FF90AF
S11308E0EF90DF9008958F929F92AF92BF92CF9234
S11308F0DF92EF92FF920F931F93CF93DF937C01CC
S1130900A62EC42FB22E822E912CD62FC12CD12CE0
S1130910142F100F20E04C2F6D2FC7010E94F503F8
S113092020E0412F6D2FC7010E94F5038FEFC81AF5
S1130930D80ADF5F8C149D046CF7C02ED12CC6013D
S1130940019718161906BCF4CF5F01E010E0DB2D07
S1130950DA0D20E04C2F6A2DC7010E94F50320E038
S11309604C2F6D2FC7010E94F5030F5F1F4FCF5F00
S11309700C151D0571F7DF91CF911F910F91FF9019
S1130980EF90DF90CF90BF90AF909F908F9008959D
S11309907F928F929F92AF92BF92CF92DF92EF920B
S11309A0FF920F931F93CF93DF937C01142FA62EF6
S11309B0B12CC22ED12C45018C0C9D1C8A149B0495
S11309C00CF441C0E501702E740E20E0472D6C2F0D
S11309D0C7010E94F50321968C169D06B4F73AC010
S11309E06E01702E710E20E0472D6C2DC7010E9400
S11309F0F5038FEFC81AD80ACA14DB04A4F31FC086
S1130A006501712E701A20E0472D6C2DC7010E94DC
S1130A10F5038FEFC81AD80A8C149D04A4F7CA15DD
S1130A20DB0504F5D12ED01A20E04D2D6C2FC70123
S1130A300E94F5032196CA15DB05B4F313C08A148A
S1130A409B04F4F6EFCFE501CC19DD09CA15DB05EB
S1130A504CF4C6CFE501CC19DD09CA15DB050CF44D
S1130A60BFCFCECFDF91CF911F910F91FF90EF9029
S1130A70DF90CF90BF90AF909F908F907F9008951C
S1130A809F92AF92BF92CF92DF92EF92FF920F9319
S1130A901F93CF93DF936C01162FF42EC22F622F76
S1130AA0610F20E00E94F503E12C00E02C2F4F2D74
S1130AB0612FC6010E94C804CC2309F496C020E02B
S1130AC04F2D612F6C1BC6010E94F50320E04C2FB3
S1130AD04F0D612FC6010E94F50320E04F2D4C1BE2
S1130AE0612FC6010E94F50381E090E05C01AC1A1D
S1130AF0B108D1E001C0D82F1A141B045CF08D2F6B
S1130B0090E0880F991F8A0D9B1D5C012FEFA21A9C
S1130B10B20A11C0C1508D2F90E0880F991F8A0D21
S1130B209B1D2C2F30E0220F331F821B930B5C0183
S1130B302FEFA21AB20ACD1708F457C020E00F2DE8
S1130B400D0F402F9C2E910E692DC6010E94F503B6
S1130B5020E0402F012F0C1B602FC6010E94F503DB
S1130B6020E0EF2CED1A4E2D692DC6010E94F503ED
S1130B7020E04E2D602FC6010E94F503E12C0D2FBD
S1130B802C2F4F2D612FC6010E94C804CD1769F187
S1130B90912E9D0E20E00C2F0F0D402F692DC601C4
S1130BA00E94F503E12EED1A20E0402F6E2DC601C0
S1130BB00E94F50320E00F2D0C1B402F692DC60168
S1130BC00E94F50320E0402F6E2DC6010E94F5031C
S1130BD0E12C0C2F2D2F4F2D612FC6010E94C8042C
S1130BE081E08D0FDC1708F486CFDF91CF911F9140
S1130BF00F91FF90EF90DF90CF90BF90AF909F90B8
S1130C0008957F928F929F92AF92BF92CF92DF927C
S1130C10EF92FF920F931F93CF93DF937C01142FD6
S1130C20A62EB12CC22ED12C45018C0C9D1C8A14ED
S1130C309B04ECF1E501702E740E472D6C2FC70157
S1130C400E94120421968C169D06BCF737C06E01D3
S1130C50702E710E472D6C2DC7010E9412048FEF68
S1130C60C81AD80ACA14DB04ACF31DC06501712E7E
S1130C70701A472D6C2DC7010E9412048FEFC81AF9
S1130C80D80A8C149D04ACF7CA15DB05F4F4D12EF4
S1130C90D01A4D2D6C2FC7010E9412042196CA153B
S1130CA0DB05BCF312C08A149B0404F7F0CFE50102
S1130CB0CC19DD09CA15DB0544F4C9CFE501CC190B
S1130CC0DD09CA15DB051CF2D1CFDF91CF911F914D
S1130CD00F91FF90EF90DF90CF90BF90AF909F90D7
S1130CE08F907F9008959F92AF92BF92CF92DF92A0
S1130CF0EF92FF920F931F93CF93DF936C01162F04
S1130D00F42EC22F622F610F0E941204E12C00E026
S1130D102C2F4F2D612FC6010E940106CC2309F40C
S1130D208BC04F2D612F6C1BC6010E9412044C2FE7
S1130D304F0D612FC6010E9412044F2D4C1B612FD1
S1130D40C6010E94120481E090E05C01AC1AB10873
S1130D50D1E001C0D82F1A141B045CF08D2F90E051
S1130D60880F991F8A0D9B1D5C012FEFA21AB20AEE
S1130D7011C0C1508D2F90E0880F991F8A0D9B1DC3
S1130D802C2F30E0220F331F821B930B5C012FEFBB
S1130D90A21AB20ACD1708F44FC00F2D0D0F402F21
S1130DA0EC2EE10E6E2DC6010E941204402F012F7D
S1130DB00C1B602FC6010E9412049F2C9D1A492D02
S1130DC06E2DC6010E941204492D602FC6010E9497
S1130DD01204E12C0D2F2C2F4F2D612FC6010E94E0
S1130DE00106CD1749F1912E9D0E0C2F0F0D402FAA
S1130DF0692DC6010E941204E12EED1A402F6E2DBA
S1130E00C6010E9412040F2D0C1B402F692DC60130
S1130E100E941204402F6E2DC6010E941204E12C80
S1130E200C2F2D2F4F2D612FC6010E94010681E04A
S1130E308D0FDC1708F48ECFDF91CF911F910F91A6
S1130E40FF90EF90DF90CF90BF90AF909F90089568
S1130E502F923F924F925F926F927F928F929F92C6
S1130E60AF92BF92CF92DF92EF92FF920F931F93B4
S1130E70CF93DF9300D000D0CDB7DEB77C01362E00
S1130E804983222E0A83822F90E0861B9109202F0A
S1130E9030E0241B3109A90122F444275527421BC1
S1130EA0530B9C01992324F422273327281B390B45
S1130EB0421753070CF04CC099233CF489814A81B2
S1130EC049838A83832D322C282E8981682E712CA4
S1130ED023019A81491A5108620122F4CC24DD24A9
S1130EE0C418D508CC0CDD1CA22CB12C032D10E0A9
S1130EF04501801A910AC601881999099C838B833C
S1130F00A016B1062CF1880C991C20E0462D602F08
S1130F10C7010E94F5038B819C818C0D9D1D9C83D0
S1130F208B83992384F01414150424F491E0691A32
S1130F30710803C04FEF641A740A8B819C8188196D
S1130F4099099C838B830F5F1F4FA016B106ECF6A3
S1130F509A81E92FF0E04981242F30E0CF01821BF0
S1130F60930BBC0122F466277727681B790B822D2B
S1130F7090E083199109AC0122F444275527481BBA
S1130F80590B461757070CF049C02E1B3F0B3AF478
S1130F9089819A8199838A83832D322C282EA32CCC
S1130FA0B12C422C512C4A185B08320122F46624DD
S1130FB0772464187508660C771C9981892F90E052
S1130FC09C838B834A81042F10E04C01801A910A80
S1130FD06301C818D9088017910704F1880C991C7B
S1130FE020E04B816A2DC7010E94F503C60CD71C73
S1130FF0DD2064F01414150424F48FEFA81AB80A41
S113100003C091E0A91AB108C818D9088B819C8142
S113101001979C838B838017910714F70F900F908F
S11310200F900F90DF91CF911F910F91FF90EF9050
S1131030DF90CF90BF90AF909F908F907F906F90F4
S11310405F904F903F902F900895AF92BF92CF92B0
S1131050DF92FF920F931F93CF93DF938C01411183
S11310601CC0FF24F394A62EB12C650185E0C80EA4
S1131070D11CE5012597CC16DD0654F020E04C2F59
S11310806F2DC8010E94F5032196CC16DD06B4F736
S1131090F39483E0F812EDCF1DC00F2EFDE7FF2E71
S11310A0F02DA62EB12C650185E0C80ED11CE501FA
S11310B02597CC16DD0654F020E04C2F6F2DC80187
S11310C00E94F5032196CC16DD06B4F7F3948FE75E
S11310D0F812EDCFDF91CF911F910F91FF90DF9028
S11310E0CF90BF90AF900895EF920F93CF93E12CE0
S11310F00FE32FE740E060E084E091E00E94730496
S113110040E060E284E091E00E94250841E060E272
S113111084E091E00E942508C0E003E00C0FE12C7C
S11311202FE34C2F6FE384E091E00E942807CA5F0D
S1131130C23499F700E022E040E26FE384E091E0FA
S11311400E944005CF910F91EF900895AF92BF9206
S1131150CF92DF92FF920F931F93CF93DF938C0173
S113116041111BC0FF24F394A62EB12C650185E028
S1131170C80ED11CE5012597CC16DD064CF04C2F8A
S11311806F2DC8010E9412042196CC16DD06BCF70F
S1131190F39483E0F812EECF1CC00F2EFDE7FF2E70
S11311A0F02DA62EB12C650185E0C80ED11CE501F9
S11311B02597CC16DD064CF04C2F6F2DC8010E94EC
S11311C012042196CC16DD06BCF7F3948FE7F812CF
S11311D0EECFDF91CF911F910F91FF90DF90CF90D1
S11311E0BF90AF900895EF92FF921F93CF93DF9338
S11311F07C01D62FC22F415011E04E3308F010E08D
S113120091E08FEF8C0F8F3108F090E0992379F003
S1131210112369F0D73058F040E06D2FC7010E94C8
S1131220A608D15040E06D2FC7010E942508C05286
S113123081E0CF3108F080E0882379F0112369F050
S1131240D93358F440E06D2FC7010E94A608DF5F30
S113125040E06D2FC7010E9425088D2FDF91CF91AB
S11312601F91FF90EF900895EF92FF921F93CF93F9
S1131270DF937C01D62FC22F405411E04F3308F086
S113128010E091E08FEF8C0F8F3108F090E09923FC
S113129079F0112369F0D73058F041E06D2FC70180
S11312A00E94A608D15041E06D2FC7010E94250875
S11312B0C05281E0CF3108F080E0882379F0112317
S11312C069F0D93358F441E06D2FC7010E94A60894
S11312D0DF5F41E06D2FC7010E9425088D2FDF914C
S11312E0CF911F91FF90EF90089557985F9A8BB11B
S11312F08BB92098289A85B185B9579A5F988BB194
S11313008BB9229A2A9885B185B92FEF81EE94E0A2
S1131310215080409040E1F700C0000057985F9A48
S11313208BB18BB922982A9A85B185B9579A5F985F
S11313308BB18BB9209A289885B185B908955798AF
S11313405F9A8BB18BB92098289A85B185B9579A41
S11313505F988BB18BB984B1856084B985B18A7F7C
S113136085B985B185B92FEF81EE94E02150804095
S11313709040E1F700C0000057985F9A8BB18BB999
S113138084B18A7F84B985B1856085B985B185B911
S1131390579A5F988BB18BB9209A289885B185B9F3
S11313A008950F931F93CF93DF938C01D9E30CC05F
S11313B04C2F6D2F84E091E00E941204CF5FC03166
S11313C0B9F7DF5FDF3311F0C8E0F2CF0130110568
S11313D071F002301105A1F0012BD1F426E135E0C2
S11313E041E069E384E091E00E94300411C028E107
S11313F035E041E069E384E091E00E94300408C0F4
S11314002AE135E041E069E384E091E00E943004A0
S1131410DF91CF911F910F9108950F931F93CF9355
S1131420DF938C01D1E40CC04C2F6D2F84E091E04C
S11314300E941204CF5FC031B9F7DF5FD73411F0D7
S1131440C8E0F2CF0130110571F002301105A1F0AE
S1131450012BD1F426E135E041E061E484E091E040
S11314600E94300411C028E135E041E061E484E0E9
S113147091E00E94300408C02AE135E041E061E4D3
S113148084E091E00E943004DF91CF911F910F918D
S11314900895EF92FF920F931F93CF93DF9310E081
S11314A050E0F801E41BF50BCF0122F488279927BB
S11314B08E1B9F0BE22EF12C70E09701261B370B3D
S11314C0E90122F4CC27DD27C21BD30BC817D907A7
S11314D00CF4C8C0CF5FC0937C05CA01801B910B7C
S11314E08C01EC0122F4CC27DD27C81BD90BCC0FCF
S11314F0DD1F33236CF1CE01821B930BE616F70636
S11315000CF4BBC0220F331FA7E1B6E0EFE8F5E00F
S11315106D9341938C0F9D1F9923A4F0101611060F
S113152044F4415051094330510554F443E050E030
S113153007C04F5F5F4F4D33510514F04CE350E04B
S1131540821B930B6F5F7F4FE616F7060CF795C06F
S11315509B012E193F09CE01821B930B6E157F054B
S11315600CF48BC0220F331FA7E1B6E0EFE8F5E0DF
S11315706D9341938C0F9D1F9923A4F010161106AF
S113158044F4415051094330510554F443E050E0D0
S113159007C04F5F5F4F4D33510514F04CE350E0EB
S11315A0821B930B615071096E157F050CF765C0A2
S11315B0CE018E199F09401751070CF45EC0EE0C42
S11315C0FF1CA7E1B6E0EFE8F5E06D9341938C0FC3
S11315D09D1F9923A4F01216130644F46F5F7F4FE6
S11315E06B37710554F06AE770E007C06150710908
S11315F06530710514F465E070E08E199F0941505F
S11316005109401751070CF738C0CE018E1B9F0BB0
S11316100417150794F17F01EE0CFF1CA7E1B6E057
S1131620EFE8F5E06D9341938C0F9D1F9923A4F08F
S11316301216130644F46F5F7F4F6B37710554F035
S11316406AE770E007C0615071096530710514F4F0
S113165065E070E08E199F094F5F5F4F041715070F
S11316600CF70BC08F5F80937C05CC0FDD1F7A01D4
S1131670E01AF10A0AF09CCFC8CFDF91CF911F91F5
S11316800F91FF90EF9008952F923F924F925F92A7
S11316906F927F928F929F92AF92BF92CF92DF927E
S11316A0EF92FF920F931F93CF93DF93CDB7DEB7E3
S11316B02C970FB6F894DEBF0FBECDBF9F838E83E9
S11316C0262E4983302E4601570180E8E7E1F6E0F3
S11316D0DF01282F1D922A95E9F7EFE8F5E0DF01F5
S11316E01D928A95E9F7BAE76B1719F0E5E06E13D6
S11316F008C081E0311080E0382EB7FAB094B7F812
S1131700B094F981FC3311F0F33021F4B7FAB094BA
S1131710B7F8B094CC24C3943110C12CDD24D394F5
S113172020E030E0A901C501B4010E943E1418165E
S11317300CF4D12CCC2009F48AC0DD2009F487C034
S11317402981022F10E0B8016C537109072E000C97
S1131750880B990B0E94ED142B013C01822D90E023
S11317609B838A8320E030E048EC52E4C501B40155
S11317700E94A2150E94B5147B01772324F4EE2461
S1131780FF24E61AF70A6A817B816A577109072EDA
S1131790000C880B990B0E94ED149B01AC01C30152
S11317A0B2010E94431420E030E048EC52E40E946D
S11317B0A2150E94B5149B01772324F42227332712
S11317C0261B370B2E153F0524F16AE770E0AA812A
S11317D0BB816A1B7B0B072E000C880B990B0E94A4
S11317E0ED14A501940150580E94A2152B013C014F
S11317F0B801110F880B990B0E94ED149B01AC01E9
S1131800C301B2010E94D2130E94BC14F62E1AE73F
S113181020C0A5019401C301B2010E9443142B010D
S11318203C01EA81FB81BF01FF0F880B990B0E94E9
S1131830ED149B01AC01C301B2010E94D2130E94BA
S1131840BC14162F0F2EFCE3FF2EF02D02C010E067
S1131850F12C7724739420E030E0A901C501B40190
S11318600E949D1518160CF0712CCC2009F497C019
S1131870772009F494C0F9810F2F10E0B801635068
S11318807109072E000C880B990B0E94ED146A83D2
S11318907B838C839D83222D30E03987288720E049
S11318A030E048EC52E4C501B4010E94A2150E9444
S11318B0B5147B01772324F4EE24FF24E61AF70AF7
S11318C0688579856A577109072E000C880B990B76
S11318D00E94ED149B01AC016A817B818C819D8106
S11318E00E94431420E030E048EC52E40E94A21528
S11318F00E94B5149B01772324F422273327261B47
S1131900370B2E153F0544F16AE770E08885998509
S1131910681B790B072E000C880B990B0E94ED14A1
S1131920A501940150580E94A2156A837B838C837D
S11319309D83B801110F880B990B0E94ED149B0134
S1131940AC016A817B818C819D810E94D2130E94AB
S1131950BC14F62E1AE723C0A50194016A817B8189
S11319608C819D810E9443146A837B838C839D8335
S1131970A885B985BD01BB0F880B990B0E94ED1496
S11319809B01AC016A817B818C819D810E94D21371
S11319900E94BC14162F0F2EF3E0FF2EF02DB1E0A1
S11319A0BC873B121C86DD2009F48CC0EC85EE2339
S11319B009F488C0F981EF2EF12CB7016350710945
S11319C0072E000C880B990B0E94ED146A837B830D
S11319D08C839D83422C512CB20165507109072ED2
S11319E0000C880B990B0E94ED14688779878A870D
S11319F09B8720E030E048EC52E4C501B4010E942A
S1131A00A2150E94B5148B01772324F40027112713
S1131A10061B170B288539854A855B856A817B817E
S1131A208C819D810E94431420E030E048EC52E414
S1131A300E94A2150E94B5149B01772324F4222747
S1131A403327261B370B20173107FCF028853985EF
S1131A504A855B85C501B4010E94A2156A837B8314
S1131A608C839D83B701FF0C880B990B0E94ED14A6
S1131A709B01AC016A817B818C819D810E94D21380
S1131A800E94BC14F62E15E01DC0A50194016A81C4
S1131A907B818C819D810E9443146B017C01B20186
S1131AA0550C880B990B0E94ED149B01AC01C701E6
S1131AB0B6010E94D2130E94BC14162F0F2EF3E01D
S1131AC0FF2EF02D772009F486C02C85222309F4FB
S1131AD082C03981632E712CB3016C537109072EB6
S1131AE0000C880B990B0E94ED146B017C01822D74
S1131AF090E099878887BC0165507109072E000C16
S1131B00880B990B0E94ED146A837B838C839D83DD
S1131B1020E030E048EC52E4C501B4010E94A21573
S1131B200E94B5148B01772324F400271127061B88
S1131B30170B2A813B814C815D81C701B6010E944C
S1131B40431420E030E048EC52E40E94A2150E94C5
S1131B50B5149B01772324F422273327261B370B44
S1131B6020173107DCF02A813B814C815D81C5015E
S1131B70B4010E94A2156B017C01B301770C880BA0
S1131B80990B0E94ED149B01AC01C701B6010E94A0
S1131B90D2130E94BC14F62E15E01DC0A5019401B9
S1131BA0C701B6010E9443146B017C01A885B98565
S1131BB0BD01BB0F880B990B0E94ED149B01AC0176
S1131BC0C701B6010E94D2130E94BC14162F0F2E17
S1131BD0FCE3FF2EF02DE12C0F2D212F4981622DE6
S1131BE08E819F810E94490A612F70E080E090E01D
S1131BF00E94EB14EDE7F5E06083718382839383A5
S1131C006F2D70E080E090E00E94EB1460938105FA
S1131C10709382058093830590938405632D70E00F
S1131C2080E090E00E94EB14609385057093860534
S1131C3080938705909388058092890590928A0500
S1131C40A0928B05B0928C0580E02C960FB6F89488
S1131C50DEBF0FBECDBFDF91CF911F910F91FF90DB
S1131C60EF90DF90CF90BF90AF909F908F907F9038
S1131C706F905F904F903F902F9008953D983B98C0
S1131C8087B1846187B9449A85E00E9428039093C0
S1131C908E0580938D05803B23E09207E8F08FEA60
S1131CA093E090938E0580938D0524E536EBA5E2B1
S1131CB0B6E00E943716281B390B36952795820FFC
S1131CC0931F0024880F991F001C880F991F001C64
S1131CD0892F902D865720C08837910538F488E7DE
S1131CE090E090938E0580938D051AC020918D0508
S1131CF030918E054CEE4203C001439F900D112498
S1131D006DE770E00E940F168AE8860F893724F089
S1131D1088E780937B0506C080937B05882314F4B1
S1131D2010927B0580917B0508953C983A9887B181
S1131D30886287B9439A84E00E94280390938E05B1
S1131D4080938D058D3F22E0920780F08CEF92E026
S1131D5090938E0580938D052DE332E0A5E2B9E4DE
S1131D600E94371696958795825121C0803B910534
S1131D7048F480EB90E090938E0580938D0510924B
S1131D807A051BC080918D0590918E059C01220FD0
S1131D90331F820F931F6CE170E00E940F168EEECA
S1131DA0860F803424F08FE380937A0506C08093F5
S1131DB07A05882314F410927A058CE195E00E9448
S1131DC0D10280917A050895CF93DF93CDB7DEB722
S1131DD02D970FB6F894DEBF0FBECDBF579A5F980C
S1131DE08BB18BB9209A289885B185B90E944A0392
S1131DF08FEA0E94340388E10E94A20384E091E008
S1131E000E94AD032FEF33ED80E32150304080403A
S1131E10E1F700C0000084E091E00E94EC030E941E
S1131E200403219A81E080938000E1E8F0E088E0F7
S1131E3080837894808183608083239A612C712CC1
S1131E40812C912C33243394412C3A864B862224C2
S1131E50239418861F82198623E235E042E06BE260
S1131E6084E091E00E9430042CE235E044E06BE22F
S1131E7084E091E00E94300426E335E046E06BE222
S1131E8084E091E00E9430040E94950E80937805CE
S1131E900E943E0E809379058091780590E00E941F
S1131EA0E7028FE195E00E94D1028091790590E0EC
S1131EB00E94E7028FE395E00E94D10280917905A8
S1131EC08B525A85893208F05B85252F30E040918A
S1131ED0780564EF640F6B3078F088EE840F8830F7
S1131EE070F0E22D78858AED840F8A3010F0EF814E
S1131EF079858E2F972F05C0822D988502C0822D5B
S1131F00988582239323892B09F4A6CF832D6A30E5
S1131F1008F0842D882329F0552319F0662463944E
S1131F20712C932D88EE840F883008F0942D99231A
S1131F3009F412C4552309F40FC44652832D4A30C0
S1131F4008F0842D882349F1552339F102E310E088
S1131F501A82198204C002E310E01A821982832DC6
S1131F600E942803E981FA81E80FF91FFA83E983C3
S1131F708FE395E00E94D1020150110981F7298174
S1131F803A81C90162E370E00E9423167A8369836F
S1131F906894662461F8712C04C019821A82612C39
S1131FA0712C84E091E00E94EC030E9474080E946A
S1131FB0921664E670E00E942316BC01990F880B08
S1131FC0990B0E94ED1420E030E040E151E40E94BE
S1131FD0A21520E030E04AEF53E40E94431420E0CD
S1131FE030E040E05FE30E94D213609313067093E5
S1131FF0140680931506909316060E94921681701B
S11320009078992324F401978E6F9F6F0196909393
S11320101206809311060E94921663E070E00E94FB
S113202023169093100680930F068D7F892B89F4D5
S11320308091130690911406A0911506B09116068E
S1132040B0588093130690931406A0931506B0938A
S11320501606C0901306D0901406E0901506F09072
S11320601606E1E1F6E0008122E040E26FE384E05D
S113207091E00E94440B1D861C8629813A812A50D6
S113208031093C832B8389819A810A969E838D83AF
S11320900F2EFFE6AF2EB12CF02D50C303E0010F3D
S11320A0E42C2FE3412F6FE384E091E00E942807A2
S11320B01A5F123499F731E06316710449F182E032
S11320C06816710409F457C06114710409F0AAC0B8
S11320D00E94950E809378050E943E0E80937905A8
S11320E020917805482F6091150584E091E00E94C5
S11320F0F308809315052091780540917905609146
S1132100140584E091E00E943409809314058AC088
S11321100E94950E809378050E943E0E8093790567
S113212020917805482F6091150584E091E00E9484
S1132130F3088093150560911405862F90E08816A6
S1132140990644F4232D40E484E091E00E9434098C
S11321508093140560911405862F90E088159905E5
S11321600CF060C02EE340E484E091E00E94340966
S11321708093140557C0832D0E9428038C01898104
S11321809A810E94E7028BE495E00E94D102C80183
S11321900E94E70289E495E00E94D102EB81FC8170
S11321A00E171F0774F4232D4EE36091150584E088
S11321B091E00E94F3088093150584E495E00E9461
S11321C0D1022D813E812017310774F42EE34EE3B2
S11321D06091150584E091E00E94F3088093150551
S11321E08EE495E00E94D10260911405862F90E060
S11321F08816990644F4232D40E484E091E00E947B
S113220034098093140560911405862F90E0881595
S1132210990544F42EE340E484E091E00E943409FB
S11322208093140584E091E00E94AD03042D22E024
S1132230EC85FD85E157FA4F4081EC85FD85E95E2B
S1132240F94F608184E091E00E94730684E091E09C
S11322500E94AD0380917C0590E00197EC85FD859B
S1132260E817F9071CF43196FD87EC87042D22E06A
S11322708C859D8581579A4F7C01FC0140818C851A
S11322809D85895E994F6C01FC01608184E091E039
S11322900E944005F6015080F7011081812E912C97
S11322A084E091E00E94AD0380917C0590E0019769
S11322B02C853D852817390709F040C2252D30E0CB
S11322C0432D2530310509F0442D8091150590E00A
S11322D0BC01695F7F4F8616970644F40797522D19
S11322E0881599050CF45F81852F01C0832D80FF2B
S11322F0C2C0442309F4BFC0EC85FD85E157FA4F01
S11323008C859D85895E994F042D22E04081FC01D6
S1132310608184E091E00E9473068BE690E0E8E837
S1132320F0E091838083F5018081826080830E9444
S11323309F09FFEF23EC39E0F15020403040E1F7F2
S113234000C000000E949F09F50180818D7F808379
S11323502B980E94921664E670E00E942316BC013A
S1132360990F880B990B0E94ED1420E030E040E1B6
S113237051E40E94A21520E030E04AEF53E40E94A9
S1132380431420E030E040E05FE30E94D213609306
S113239013067093140680931506909316060E94F4
S11323A0921681709078992324F401978E6F9F6F11
S11323B0019690931206809311060E94921663E090
S11323C070E00E9423169093100680930F068D7F71
S11323D0892B89F48091130690911406A091150617
S11323E0B0911606B0588093130690931406A093E8
S11323F01506B0931606C0901306D0901406E0900C
S11324001506F0901606E1E1F6E0008122E040E2D4
S11324106FE384E091E00E94440B809174059091F5
S113242075050196909375058093740503970CF4D4
S113243080C110927605109277051092740510925F
S1132440750584E091E00E94EC0328E535E042E064
S113245061E284E091E00E943004FFEF29E638E174
S1132460F15020403040E1F700C0000084E091E0EA
S11324700E94EC03F1CCA32D2A37310509F0A42DD9
S11324808091140590E0BC01695F7F4F8616970622
S113249044F4522DFC013797E815F9051CF45F81CB
S11324A001C0532D50FFC2C0AA2309F4BFC0EC855C
S11324B0FD85E157FA4F8C859D85895E994F042DE2
S11324C022E04081FC01608184E091E00E94730677
S11324D02CE330E0E8E8F0E031832083F5018081EB
S11324E0826080830E947509FFEF23EC39E0F1508C
S11324F020403040E1F700C000000E947509F5015A
S113250080818D7F80832B980E94921664E670E010
S11325100E942316BC01990F880B990B0E94ED149D
S113252020E030E040E151E40E94A21520E030E0D8
S11325304AEF53E40E94431420E030E040E05FE3BC
S11325400E94D213609313067093140680931506A9
S1132550909316060E94921681709078992324F421
S113256001978E6F9F6F01969093120680931106C8
S11325700E94921663E070E00E9423169093100666
S113258080930F068D7F892B89F480911306909197
S11325901406A0911506B0911606B0588093130640
S11325A090931406A0931506B0931606C0901306D4
S11325B0D0901406E0901506F0901606E1E1F6E0DE
S11325C0008122E040E26FE384E091E00E94440B4A
S11325D08091760590917705019690937705809385
S11325E0760503970CF4A8C010927605109277052F
S11325F0109274051092750584E091E00E94EC033A
S113260026E635E042E061E284E091E00E94300495
S1132610FFEF29E638E1F15020403040E1F700C0F7
S1132620000084E091E00E94EC0316CC2A373105C7
S113263009F49EC050E0861697065CF00797322D89
S113264028858815990514F03F812985832F922FB9
S113265002C0822D98858423952380FF35C0C090C5
S11326608905D0908A05E0908B05F0908C056091E7
S113267085057091860580918705909188050E9453
S1132680BC14062F22E0412F652D84E091E00E94C6
S1132690440B28E730E0E8E8F0E031832083F501DB
S11326A0808182608083FFEF29EF30E0F150204089
S11326B03040E1F700C00000F50180818D7F808308
S11326C02B981D861C863AC0C0908905D0908A0537
S11326D0E0908B05F0908C056091850570918605DE
S11326E080918705909188050E94BC14062F22E0F2
S11326F0412F652D84E091E00E94440B20E530E0F9
S1132700E8E8F0E031832083F501808182608083F2
S1132710FFEF29EF30E0F15020403040E1F700C0F6
S11327200000F50180818D7F80832B981D861C8697
S113273005C01D861C8602C01D861C8680917605F8
S1132740909177050E94D109809174059091750547
S11327500E940D0A10E0A2CC4652832D4A3008F0A4
S1132760842D882311F05111F6CB19821A8219CCC9
S1132770861697060CF473CF422D58855FCF1F92AF
S11327800F920FB60F9211248F939F9395B188E007
S1132790892785B99F918F910F900FBE0F901F903D
S11327A018955058BB27AA270E94E9130C94631567
S11327B00E94551538F00E945C1520F039F49F3FB3
S11327C019F426F40C9452150EF4E095E7FB0C94DE
S11327D04C15E92F0E94741558F3BA176207730752
S11327E08407950720F079F4A6F50C9496150EF459
S11327F0E0950B2EBA2FA02D0B01B90190010C010D
S1132800CA01A0011124FF27591B99F0593F50F424
S1132810503E68F11A16F040A22F232F342F44277C
S1132820585FF3CF469537952795A795F040539574
S1132830C9F77EF41F16BA0B620B730B840BBAF044
S11328409150A1F0FF0FBB1F661F771F881FC2F7AF
S11328500EC0BA0F621F731F841F48F487957795C3
S11328606795B795F7959E3F08F0B0CF9395880F7D
S113287008F09927EE0F9795879508950E942815DB
S113288008F481E008950E9457140C9463150E9483
S11328905C1558F00E94551540F029F45F3F29F06B
S11328A00C944C1551110C9497150C9452150E94CC
S11328B0741568F39923B1F3552391F3951B550BC4
S11328C0BB27AA2762177307840738F09F5F5F4FFF
S11328D0220F331F441FAA1FA9F335D00E2E3AF03E
S11328E0E0E832D091505040E695001CCAF72BD056
S11328F0FE2F29D0660F771F881FBB1F26173707A7
S11329004807AB07B0E809F0BB0B802DBF01FF27D8
S113291093585F4F3AF09E3F510578F00C944C1554
S11329200C9497155F3FE4F3983ED4F3869577951E
S11329306795B795F7959F5FC9F7880F911D969591
S1132940879597F90895E1E0660F771F881FBB1FED
S1132950621773078407BA0720F0621B730B840B9A
S1132960BA0BEE1F88F7E09508950E94BC14689492
S1132970B1110C94971508950E947C1588F09F5707
S113298098F0B92F9927B751B0F0E1F0660F771F8F
S1132990881F991F1AF0BA95C9F714C0B13091F085
S11329A00E949615B1E008950C949615672F782F20
S11329B08827B85F39F0B93FCCF38695779567954A
S11329C0B395D9F73EF490958095709561957F4FB6
S11329D08F4F9F4F0895E89409C097FB3EF490955C
S11329E08095709561957F4F8F4F9F4F9923A9F0E4
S11329F0F92F96E9BB279395F69587957795679573
S1132A00B795F111F8CFFAF4BB0F11F460FF1BC0B6
S1132A106F5F7F4F8F4F9F4F16C0882311F096E949
S1132A2011C0772321F09EE8872F762F05C06623F7
S1132A3071F096E8862F70E060E02AF09A95660FB0
S1132A40771F881FDAF7880F9695879597F9089569
S1132A50990F0008550FAA0BE0E8FEEF16161706AB
S1132A60E807F907C0F012161306E407F50798F013
S1132A70621B730B840B950B39F40A2661F0232B2C
S1132A80242B252B21F408950A2609F4A140A695A8
S1132A908FEF811D811D089597F99F6780E870E08D
S1132AA060E008959FEF80EC089500240A941616C0
S1132AB0170618060906089500240A941216130628
S1132AC0140605060895092E0394000C11F48823B6
S1132AD052F0BB0F40F4BF2B11F460FF04C06F5FD2
S1132AE07F4F8F4F9F4F089557FD9058440F551FA8
S1132AF059F05F3F71F04795880F97FB991F61F07C
S1132B009F3F79F087950895121613061406551FF2
S1132B10F2CF4695F1DF08C0161617061806991F5E
S1132B20F1CF86957105610508940895E894BB2753
S1132B3066277727CB0197F908950E94281508F492
S1132B408FEF08950E94B5150C9463150E945515D6
S1132B5038F00E945C1520F0952311F00C944C156C
S1132B600C94521511240C9497150E94741570F34B
S1132B70959FC1F3950F50E0551F629FF001729F1E
S1132B80BB27F00DB11D639FAA27F00DB11DAA1F2D
S1132B90649F6627B00DA11D661F829F2227B00D7A
S1132BA0A11D621F739FB00DA11D621F839FA00D05
S1132BB0611D221F749F3327A00D611D231F849F55
S1132BC0600D211D822F762F6A2F11249F575040AC
S1132BD09AF0F1F088234AF0EE0FFF1FBB1F661F27
S1132BE0771F881F91505040A9F79E3F510580F0F0
S1132BF00C944C150C9497155F3FE4F3983ED4F372
S1132C00869577956795B795F795E7959F5FC1F793
S1132C10FE2B880F911D9695879597F90895AA1B09
S1132C20BB1B51E107C0AA1FBB1FA617B70710F0B3
S1132C30A61BB70B881F991F5A95A9F780959095E5
S1132C40BC01CD01089597FB072E16F4009407D01C
S1132C5077FD09D00E940F1607FC05D03EF490952D
S1132C6081959F4F0895709561957F4F0895A29F18
S1132C70B001B39FC001A39F700D811D1124911D4C
S1132C80B29F700D811D1124911D08958F929F9202
S1132C90AF92BF92CF92DF92EF92FF92CF93DF93E6
S1132CA0EC01688179818A819B81611571058105B7
S1132CB0910521F464E279ED8BE597E02DE133EFA2
S1132CC041E050E00E94D71649015A019B01AC0132
S1132CD0A7EAB1E40E94F6166B017C01ACEEB4EFF6
S1132CE0A50194010E940417DC01CB018C0D9D1DEC
S1132CF0AE1DBF1DB7FF03C00197A109B04888836B
S1132D009983AA83BB839F77DF91CF91FF90EF9044
S1132D10DF90CF90BF90AF909F908F9008950E94C6
S1132D204616089580E091E00E9446160895A0E0BA
S1132D30B0E08093000190930101A0930201B0934D
S1132D4003010895BB274A3031F4992322F4BDE2EC
S1132D50909581959F4F0C94AE16BB27FB01552788
S1132D60AA27880F991FAA1FA41710F0A41B8395E4
S1132D705051B9F7A05DAA3308F0A95DA19300975B
S1132D8079F7B111B1931192CB010C94C716DC0100
S1132D90FC01672F71917723E1F7329704C07C918E
S1132DA06D9370836291AE17BF07C8F30895052E23
S1132DB097FB1EF400940E94EE1657FD07D00E9464
S1132DC0091707FC03D04EF40C94EE165095409569
S1132DD0309521953F4F4F4F5F4F089590958095C3
S1132DE0709561957F4F8F4F9F4F08950E943716BE
S1132DF0A59F900DB49F900DA49F800D911D11244B
S1132E000895B7FF0C94F6160E94F616821B930BD6
S1132E100895A1E21A2EAA1BBB1BFD010DC0AA1F17
S1132E20BB1FEE1FFF1FA217B307E407F50720F02F
S1132E30A21BB30BE40BF50B661F771F881F991FAA
S1132E401A9469F760957095809590959B01AC01F3
S10D2E50BD01CF010895F894FFCFEF
S1132E5A010000007F7F7F7F717F717F7F7F7F7F8B
S1132E6A7E7F7A7B7F7F7F7F7F7F7F7F7F717F7F7C
S1132E7A717F7F7F0000606060787F7F7F7F7F60E3
S1132E8A6060606060707078783E3F1F1F0F0701B2
S1132E9A0000000000000000000000000000000024
S1132EAA0000000000000000000000000000000014
S1132EBA0000000000000000000000000000000004
S1132ECA00000000000000000000000000000000F4
S1132EDA00000000FFFFF0F0F0F0F0F0F0F0F0F086
S1132EEAF1F3F7FFFFFFF7F1F0F0F0F0F0F0F0F094
S1132EFAF0F0F0FF000000000000FFFFFFFFFF00FA
S1132F0A0000000000000000000083FFFFFFFFFF35
S1132F1A3C00010103030303030301010000000051
S1132F2A0101010103030303030000010103030375
S1132F3A030303010000000000000101010303036D
S1132F4A030300000001010303030303010100005A
S1132F5A00000000E0FF03000103070F1E3E7FFF8D
S1132F6AFFFF9F0F0F8FFFFFFF7F3E1E0F07030117
S1132F7A00013FFC000000000000FFFFFFFFFF1CF0
S1132F8A1C1C1C1C1C1C1C3C78F8F8F8F1EFDFFF15
S1132F9A7FFFE1C18181818181C1E1F9FFFF7F1F47
S1132FAA878080C0FFFFFFFFFF78F0E0C0C0C0C089
S1132FBAC0E0FFFFFFFF3F070000808080FFFFFFA4
S1132FCAFFFF3C78F0E0C0C0C0C0E0F0FFFFFF7F25
S1132FDA1F0000000080E0F8FCFFFF3F1F1E3CF8C2
S1132FEAF0E0C08000C0E0F0F83C1E1F3FFFFFFC89
S1132FFAF8E08000000000000000FFFFFFFFFF0070
S113300A000000000000000000000000FEFFFFFFB7
S113301AFFBF8180808080808080808080808080E3
S113302A80000000FFFFFFFFFF0000000000000017
S113303A0000FFFFFFFFFFFF0000000000FFFFFF8B
S113304AFFFF00000000000000000000FFFFFFFF78
S113305AFF00000000000000000080C0E07030188B
S113306A0C0C0606060C0C18183060E0C080000030
S113307A000000000000060E0E3EFEFEFEFEFE7E6E
S113308A0E0E060000000000000000000080E0F0C0
S113309AF8FCFC7E3E1E0E0E0E060E0E0E1C387832
S11330AAE6060E1EFEFEFEFEFE0E0E0600000006DC
S11330BA060EFEFEFEFEFEFE0E0E06060EFEFEFECA
S11330CAFEFE7E0E0E06000000060E0EFEFEFEFE3C
S11330DAFE1E0E06000000000000000000000000B2
S11330EA00000000000000000000010100000000D0
S11330FA00000000000000000000000000000001C1
S113310A01010000000000000101000000000000AD
S113311A000000000000000001010100000000009E
S113312A000001010000000000000000000000008F
S113313A0000000000000000000000000000000081
S113314A0000000000000000000000000000000071
S113315A000000000000FFFFCECECECE001F1F1FCE
S113316A38381F1F1C383C1F0F00FFFF1C38381F3C
S113317A1F07071F1F3B3B1F1F07071F1F3838FF67
S113318AFFFF000F1F38381CFFFF000F1F1F3B3BB8
S113319A1F1F070F1F1F3838FFFFFF0000000078AA
S11331AAFCFCCECFC7C3181F1F03031F1F181E1F03
S11331BA3F3B1B0118FFFF1818000F1F3B3B3B1F27
S11331CA0F001F1F1C383C1F1F18383F1F07001F02
S11331DA3F3B3B190000F0F07070707000F0F0F0A3
S11331EA0000F0F0000000F0F000F0F0F07070F071
S11331FAE080C0E0F07030707000C0E0F07070E001
S113320AF0F000E0F0707070F0F000C0E0F07030A0
S113321A707000C0E0F07070F0F0F0000000006020
S113322A70703070F0E00000EEFEFCE00000707098
S113323A30F0F0E000E0F0707000E0F070303070D0
S113324A6000F0F0000000F0F00000F0F0F06070B0
S113325A30B0F0E00300020001000000070006009D
S113326A05000400202030003100320020793A2081
S113327A2020003120506C61796572003220506C34
S113328A617965727300416363204D6F6465002040
S113329A20200A00666C616731200A202000666CCF
S11332AA616732200A202000506C617965722032ED
S11332BA2057696E2100506C61796572203120575C
S10732CA696E210004
S9030000FC
