:100000000C9434000C943E000C943E000C943E0082
:100010000C943E000C943E000C943E000C943E0068
:100020000C943E000C943E000C943E000C943E0058
:100030000C943E000C943E000C944D000C943E0039
:100040000C943E000C943E000C943E000C943E0038
:100050000C943E000C943E000C943E000C943E0028
:100060000C943E000C943E0011241FBECFEFD8E04C
:10007000DEBFCDBF0E9440000C9462000C940000D3
:10008000569A8EE887BDEEE6F0E08081826080833C
:10009000789485B5846085BDFFCF1F920F920FB60F
:1000A0000F9211248F939F939BB180E489278BB982
:1000B00087B5825787BD9F918F910F900FBE0F908C
:0800C0001F901895F894FFCF82
:00000001FF
