:100000000C9434000C9449000C9449000C94490061
:100010000C9449000C9449000C9449000C9449003C
:100020000C9449000C9449000C9449000C9449002C
:100030000C9449000C9449000C9449000C9449001C
:100040000C9449000C9449000C9449000C9449000C
:100050000C9449000C9449000C9449000C944900FC
:100060000C9449000C94490011241FBECFEFD8E036
:10007000DEBFCDBF11E0A0E0B1E0EEEDF1E002C0E7
:1000800005900D92A430B107D9F70E948E000C9410
:10009000ED000C940000CF93DF93FC01208122231C
:1000A00069F0DC011196E0ECF0E0C6ECD0E0908164
:1000B00095FFFDCF28832D912111F9CFDF91CF91AD
:1000C0000895CF93DF93CDB7DEB760970FB6F8945E
:1000D000DEBF0FBECDBF4AE0BE016F5F7F4F0E9403
:1000E000B800CE0101960E944B0060960FB6F894BE
:1000F000DEBF0FBECDBFDF91CF910895ECE7F0E0FA
:10010000808180648083EAE7F0E087E880838081F3
:1001100080628083808180648083089582E0809300
:10012000C0001092C5008FEC8093C40088E18093DA
:10013000C1000E947E002FEF80E792E021508040B6
:100140009040E1F700C00000C8E7D0E088819981C5
:100150000E94610080E091E00E944B002FEF80E759
:1001600092E0215080409040E1F700C00000EECFC7
:10017000BB274A3031F4992322F4BDE29095819552
:100180009F4F0C94C400BB27FB015527AA27880F5B
:10019000991FAA1FA41710F0A41B83955051B9F7FB
:1001A000A05DAA3308F0A95DA193009779F7B1117A
:1001B000B1931192CB010C94DD00DC01FC01672F9F
:1001C00071917723E1F7329704C07C916D9370832E
:0E01D0006291AE17BF07C8F30895F894FFCFF1
:0401DE00200D0A00E6
:00000001FF
